:100000000C942A000C943F000C943F000C943F0089
:100010000C943F000C943F000C943F000C943F0064
:100020000C943F000C943F000C943F000C943F0054
:100030000C943F000C943F000C943F000C943F0044
:100040000C943F000C943F000C943F000C943F0034
:100050000C943F0011241FBECFE5D8E0DEBFCDBF1A
:1000600011E0A0E6B0E0ECE9F4E002C005900D92EA
:10007000A832B107D9F70E9445010C944C020C94A8
:100080000000843008F07EC0683008F07BC0423049
:1000900008F078C0813019F130F08230E1F183301E
:1000A00009F455C00895442319F0413069F00895CA
:1000B0002AB381E090E002C0880F991F6A95E2F7A9
:1000C000809582238ABB08952AB381E090E002C024
:1000D000880F991F6A95E2F7822B8ABB0895442303
:1000E00019F0413069F0089527B381E090E002C033
:1000F000880F991F6A95E2F78095822387BB089540
:1001000027B381E090E002C0880F991F6A95E2F75B
:10011000822B87BB0895442319F0413069F008957C
:1001200024B381E090E002C0880F991F6A95E2F73E
:100130008095822384BB089524B381E090E002C0BF
:10014000880F991F6A95E2F7822B84BB0895442398
:1001500019F0413069F0089521B381E090E002C0C8
:10016000880F991F6A95E2F78095822381BB0895D5
:1001700021B381E090E002C0880F991F6A95E2F7F1
:10018000822B81BB0895843008F07EC0683008F06F
:100190007BC0423008F078C0813019F130F08230F5
:1001A000E1F1833009F455C00895442319F041303A
:1001B00069F008952BB381E090E002C0880F991F89
:1001C0006A95E2F7809582238BBB08952BB381E07B
:1001D00090E002C0880F991F6A95E2F7822B8BBBD3
:1001E0000895442319F0413069F0089528B381E05F
:1001F00090E002C0880F991F6A95E2F780958223EC
:1002000088BB089528B381E090E002C0880F991F51
:100210006A95E2F7822B88BB0895442319F0413098
:1002200069F0089525B381E090E002C0880F991F1E
:100230006A95E2F78095822385BB089525B381E016
:1002400090E002C0880F991F6A95E2F7822B85BB68
:100250000895442319F0413069F0089522B381E0F4
:1002600090E002C0880F991F6A95E2F7809582237B
:1002700082BB089522B381E090E002C0880F991FED
:100280006A95E2F7822B82BB0895CF93DF93CDB7B7
:10029000DEB763970FB6F894DEBF0FBECDBF41E067
:1002A00061E083E00E94410040E060E083E00E9462
:1002B000410041E062E081E00E94410040E062E0F4
:1002C00081E00E94C3000E94FA0141E065E083E002
:1002D0000E9441000E94D60186E791E00E94F7014A
:1002E0000E94ED0110E0111132C080E690E00E9402
:1002F0001702CE0101960E942A0283EC90E00E9430
:10030000170283E890E00E941702CE010A960E942D
:100310002A0283EC90E00E94170265EA70E0CE01A9
:1003200001960E944302892B91F46EEA70E0CE019F
:100330000A960E944302892B51F487EB90E00E94B9
:10034000170241E062E081E00E94C30011E086EC08
:1003500090E00E941702CE0143960E940F0283ECA8
:1003600090E00E9417028B89803349F48DEF90E072
:100370000E94170286E791E00E94F701B4CF813313
:1003800049F48BE091E00E94170283EF91E00E9414
:10039000F701A9CF823309F0A6CF89E191E00E944D
:1003A000170289EF90E00E94F7019DCF8FB58E7FF5
:1003B0008FBD8FB582608FBD8EB588608EBD8EB5C6
:1003C00080618EBD8FB58F7B8FBD8FB580688FBDEF
:1003D00087E893E197BD86BD08958EB581608EBD97
:1003E0008EB582608EBD8EB58B7F8EBD08959BBD10
:1003F0008ABD089587E689B98BB18D7F8BB986E870
:1004000080BD8AB18B7F8AB98AB188608AB98AB186
:1004100080618AB908958CB95D9BFECF08950097DD
:1004200029F05F9BFECF2CB1FC01208308950F9330
:100430001F93CF938C01C0E003C00E940B02CF5FDB
:10044000F801EC0FF11D80818111F7CFCF911F9141
:100450000F910895EF92FF921F93CF93DF937C014A
:1004600010E0E701C10FD11DCE010E940F0288816B
:10047000833211F01F5FF5CF1882DF91CF911F916A
:10048000FF90EF900895FB01DC018D9101908019A0
:0C0490000110D9F3990B0895F894FFCFE8
:10049C00456E7465722055736572204E616D653AB8
:1004AC0028466F6C6C6F7765642062792023293A3B
:1004BC000D0A00456E7465722050617373776F720C
:1004CC00643A28466F6C6C6F7765642062792023E0
:1004DC00293A0D0A006F73616D613132330031328C
:1004EC00333435363738004C6F6720496E20446FF3
:1004FC006E65210D0A00456E746572203020746F94
:10050C0020636C6F73652074686520646F6F722054
:10051C003120746F2070756C6C20697420322074DB
:10052C006F20707573682069743A0D0A00446F6F00
:10053C007220636C6F7365640D0A00446F6F7220D8
:10054C0050756C6C65640D0A00446F6F72205075A9
:08055C00736865640D0A0000DC
:00000001FF
