S01600004B45595041445F70726F6A6563742E73726563FA
S11300000C942A000C943F000C943F000C943F0085
S11300100C943F000C943F000C943F000C943F0060
S11300200C943F000C943F000C943F000C943F0050
S11300300C943F000C943F000C943F000C943F0040
S11300400C943F000C943F000C943F000C943F0030
S11300500C943F0011241FBECFE5D8E0DEBFCDBF16
S113006010E0A0E6B0E0EEE0F9E002C005900D92E9
S1130070A039B107D9F70E942E040C9485040C947E
S11300800000843008F07EC0683008F07BC0423045
S113009008F078C0813019F130F08230E1F183301A
S11300A009F455C00895442319F0413069F00895C6
S11300B02AB381E090E002C0880F991F6A95E2F7A5
S11300C0809582238ABB08952AB381E090E002C020
S11300D0880F991F6A95E2F7822B8ABB08954423FF
S11300E019F0413069F0089527B381E090E002C02F
S11300F0880F991F6A95E2F78095822387BB08953C
S113010027B381E090E002C0880F991F6A95E2F757
S1130110822B87BB0895442319F0413069F0089578
S113012024B381E090E002C0880F991F6A95E2F73A
S11301308095822384BB089524B381E090E002C0BB
S1130140880F991F6A95E2F7822B84BB0895442394
S113015019F0413069F0089521B381E090E002C0C4
S1130160880F991F6A95E2F78095822381BB0895D1
S113017021B381E090E002C0880F991F6A95E2F7ED
S1130180822B81BB0895843008F07EC0683008F06B
S11301907BC0423008F078C0813019F130F08230F1
S11301A0E1F1833009F455C00895442319F0413036
S11301B069F008952BB381E090E002C0880F991F85
S11301C06A95E2F7809582238BBB08952BB381E077
S11301D090E002C0880F991F6A95E2F7822B8BBBCF
S11301E00895442319F0413069F0089528B381E05B
S11301F090E002C0880F991F6A95E2F780958223E8
S113020088BB089528B381E090E002C0880F991F4D
S11302106A95E2F7822B88BB0895442319F0413094
S113022069F0089525B381E090E002C0880F991F1A
S11302306A95E2F78095822385BB089525B381E012
S113024090E002C0880F991F6A95E2F7822B85BB64
S11302500895442319F0413069F0089522B381E0F0
S113026090E002C0880F991F6A95E2F78095822377
S113027082BB089522B381E090E002C0880F991FE9
S11302806A95E2F7822B82BB08958430C0F568300A
S1130290B0F54115510599F1813089F028F082308B
S11302A0C9F0833011F1089589B390E002C09595A7
S11302B087956A95E2F78170FA018083089586B381
S11302C090E002C0959587956A95E2F78170FA01EE
S11302D08083089583B390E002C0959587956A95CD
S11302E0E2F78170FA018083089580B390E002C040
S11302F0959587956A95E2F78170FA018083089550
S11303008430A8F5683098F5813089F028F082307F
S1130310C9F0833011F108952BB381E090E002C05D
S1130320880F991F6A95E2F7822B8BBB089528B337
S113033081E090E002C0880F991F6A95E2F7822B52
S113034088BB089525B381E090E002C0880F991F0F
S11303506A95E2F7822B85BB089522B381E090E091
S113036002C0880F991F6A95E2F7822B82BB089519
S113037041E060E080E00E94410041E061E080E013
S11303800E94410041E062E080E00E94410041E0BF
S113039063E080E00E94410040E064E080E00E946D
S11303A0410040E065E080E00E94410040E066E0FA
S11303B080E00E94410040E067E080E00E9441004C
S11303C064E080E00E94800165E080E00E9480019A
S11303D066E080E00E94800167E080E00E94800186
S11303E041E060E082E00E94410041E061E082E09F
S11303F00E94410041E062E082E00E94410041E04D
S113040063E082E00E94410040E064E082E00E94F8
S1130410410040E065E082E00E94410040E066E087
S113042082E00E94410040E067E082E00E944100D7
S113043064E082E00E94800165E082E00E94800125
S113044066E082E00E94800167E082E00E94800111
S113045041E060E081E00E94410041E061E081E030
S11304600E94410041E062E083E00E94410041E0DB
S113047063E083E00E94410040E064E083E00E9486
S1130480410040E065E083E00E94410040E066E016
S113049083E00E94410040E067E083E00E94410065
S11304A064E083E00E94800165E083E00E948001B3
S11304B066E083E00E94800167E083E00E9480019F
S11304C008956F927F928F929F92AF92BF92CF9234
S11304D0DF92EF92FF920F931F93CF93DF93CDB7E9
S11304E0DEB7CD55D1090FB6F894DEBF0FBECDBF30
S11304F0009709F49DC16C018FEFF60180836D961E
S11305001CAE1DAE1EAE1FAE6D9766961FAE6697EF
S113051021E067962FAF679782E068968FAF689760
S113052093E069969FAF699764E062966FAF6297B4
S113053055E063965FAF639746E064964FAF649768
S113054037E065963FAF659770E1E0E6F0E0DE01E5
S1130550919601900D927A95E1F72E968FAF2E9792
S11305602F968FAF2F9760968FAF609761968FAF5E
S113057061972A961FAE2A972B962FAF2B972C960E
S11305808FAF2C972D969FAF2D9726968FAF2697DA
S113059027968FAF279728968FAF289729968FAFE6
S11305A0299722966FAF229723965FAF23972496BD
S11305B04FAF249725963FAF259770E1E0E7F0E031
S11305C0DE01519601900D927A95E1F72DAF2EAF91
S11305D09FAF21969FAF219719AE2AAF8BAF9CAFE7
S11305E09DAB9EAB9FAB98AF69AB5AAB4BAB3CABEF
S11305F080E1E0E8F0E0DE01119601900D928A9529
S1130600E1F700E053C0802E912CE5E5F0E0EC0F1B
S1130610FD1FE80DF91D7080E9E5F0E0EC0FFD1F0A
S1130620E80DF91DE08040E0672D8E2D0E94C30087
S113063010E034C0A12EB12CE1E5F0E0EC0FFD1F79
S1130640EA0DFB1DF080AE01435A5F4F6F2D80E031
S11306500E9445016E968FAD6E9781111EC007C032
S1130660AE01435A5F4F6F2D80E00E9445016E96A4
S11306708FAD6E978823A1F3AA0CBB1CAA0CBB1CDC
S113068081E090E08C0F9D1FA80EB91EF501E80DC6
S1130690F91D80A1F6018083CBC01F5F143050F296
S11306A041E0672D8E2D0E94C3000F5F043008F4D3
S11306B0AACF00E05AC0A02EB12CE9E4F0E0EC0F80
S11306C0FD1FEA0DFB1D6080EDE4F0E0EC0FFD1F63
S11306D0EA0DFB1D708040E0662D872D0E94C3004B
S11306E010E03BC0E12EF12CE1E4F0E0EC0FFD1F43
S11306F0EE0DFF1D9080E5E4F0E0EC0FFD1FEE0D24
S1130700FF1D8080AE01435A5F4F692D882D0E94E2
S113071045016E968FAD6E9781111EC007C0AE0164
S1130720435A5F4F692D882D0E9445016E968FAD07
S11307306E978823A1F3EE0CFF1CEE0CFF1C81E0E6
S113074090E08C0F9D1FE80EF91EF701EA0DFB1DCA
S11307508089F60180836CC01F5F143018F241E079
S1130760662D872D0E94C3000F5F043008F4A3CFC9
S1130770812C5AC0A82CB12CE9E3F0E0EC0FFD1F4A
S1130780EA0DFB1D6080EDE3F0E0EC0FFD1FEA0DC8
S1130790FB1D708040E0662D872D0E94C30010E091
S11307A03BC0E12EF12CE1E3F0E0EC0FFD1FEE0D78
S11307B0FF1D0081E5E3F0E0EC0FFD1FEE0DFF1DD2
S11307C09080AE01435A5F4F602F892D0E944501EE
S11307D06E968FAD6E9781111EC007C0AE01435A4D
S11307E05F4F602F892D0E9445016E968FAD6E97E5
S11307F08823A1F3EE0CFF1CEE0CFF1C81E090E0BB
S11308008C0F9D1FE80EF91EF701EA0DFB1D808178
S1130810F60180830DC01F5F143018F241E0662D8D
S1130820872D0E94C3008394F3E0F81508F0A2CF4B
S1130830C35ADF4F0FB6F894DEBF0FBECDBFDF91B2
S1130840CF911F910F91FF90EF90DF90CF90BF90C9
S1130850AF909F908F907F906F900895CF93DF9388
S11308601F92CDB7DEB785E0898341E061E083E084
S11308700E94410040E060E083E00E94410041E0CA
S113088061E081E00E94410041E062E081E00E9479
S1130890410041E063E081E00E9441000E94700455
S11308A00E94B80141E062E081E00E94C30010E0D0
S11308B0183059F440E062E081E00E94C30041E056
S11308C063E081E00E94C300F3CFCE0101960E9451
S11308D0610289818F3F61F30E9481041F5FE8CF29
S11308E087E689B98BB18D7F8BB986E880BD8AB1E3
S11308F08B7F8AB98AB188608AB98AB180618AB9E2
S111090008958CB95D9BFECF0895F894FFCF47
S113090E3132334134353641373839414130424141
S113091E4344454146474841494A4B414C4D4E415B
S113092E4F505141525354415556574158595A41BB
S9030000FC
