S01500004C414D50535F70726F6A6563742E737265633C
S11300000C942A000C943C000C943C000C943C008E
S11300100C943C000C943C000C943C000C943C006C
S11300200C943C000C943C000C9453030C94180363
S11300300C943C000C943C000C943C000C943C004C
S11300400C943C000C943C000C943C000C943C003C
S11300500C943C0011241FBECFE5D8E0DEBFCDBF19
S113006020E0A0E6B0E001C01D92AA36B207E1F795
S11300700E94C6010C94C9040C940000823059F00B
S1130080833081F08130A1F487B1806487B987B16E
S11300908F7787B90DC087B18F7B87B987B18F7789
S11300A087B906C087B1806487B987B1806887B98A
S11300B087B18F7D87B986B18F7D86B986B1877FF9
S11300C086B986B1816086B986B1826086B986B107
S11300D0846086B986B1806886B908958032B0F4A8
S11300E06115710599F097B1907E97B997B1892BF5
S11300F087B986B1806486B9349BFECF86B18061AE
S113010086B984B195B1FB019183808308958430CD
S113011008F07EC0683008F07BC0423008F078C038
S1130120813019F130F08230E1F1833009F455C0A7
S11301300895442319F0413069F008952AB381E009
S113014090E002C0880F991F6A95E2F78095822398
S11301508ABB08952AB381E090E002C0880F991FFA
S11301606A95E2F7822B8ABB0895442319F0413043
S113017069F0089527B381E090E002C0880F991FC9
S11301806A95E2F78095822387BB089527B381E0BF
S113019090E002C0880F991F6A95E2F7822B87BB13
S11301A00895442319F0413069F0089524B381E09F
S11301B090E002C0880F991F6A95E2F78095822328
S11301C084BB089524B381E090E002C0880F991F96
S11301D06A95E2F7822B84BB0895442319F04130D9
S11301E069F0089521B381E090E002C0880F991F5F
S11301F06A95E2F78095822381BB089521B381E05B
S113020090E002C0880F991F6A95E2F7822B81BBA8
S11302100895843008F07EC0683008F07BC0423016
S113022008F078C0813019F130F08230E1F1833088
S113023009F455C00895442319F0413069F0089534
S11302402BB381E090E002C0880F991F6A95E2F712
S1130250809582238BBB08952BB381E090E002C08C
S1130260880F991F6A95E2F7822B8BBB089544236C
S113027019F0413069F0089528B381E090E002C09C
S1130280880F991F6A95E2F78095822388BB0895A9
S113029028B381E090E002C0880F991F6A95E2F7C5
S11302A0822B88BB0895442319F0413069F00895E6
S11302B025B381E090E002C0880F991F6A95E2F7A8
S11302C08095822385BB089525B381E090E002C028
S11302D0880F991F6A95E2F7822B85BB0895442302
S11302E019F0413069F0089522B381E090E002C032
S11302F0880F991F6A95E2F78095822382BB08953F
S113030022B381E090E002C0880F991F6A95E2F75A
S1130310822B82BB08958430C0F56830B0F5411556
S1130320510599F1813089F028F08230C9F0833089
S113033011F1089589B390E002C0959587956A9567
S1130340E2F78170FA018083089586B390E002C0D9
S1130350959587956A95E2F78170FA0180830895EF
S113036083B390E002C0959587956A95E2F7817012
S1130370FA018083089580B390E002C09595879533
S11303806A95E2F78170FA0180830895CF93DF9331
S1130390CDB7DEB72A970FB6F894DEBF0FBECDBF38
S11303A041E063E082E00E94870041E061E080E098
S11303B00E94870041E062E080E00E94870041E003
S11303C063E080E00E94870041E064E080E00E94F6
S11303D0870041E065E080E00E94870040E066E03D
S11303E080E00E94870040E067E080E00E94870090
S11303F040E060E082E00E94870040E061E082E04B
S11304000E94870040E062E083E00E94870040E0B1
S113041063E083E00E94870040E064E083E00E94A0
S1130420870040E065E083E00E94870019821A8219
S113043083E00E943E0040E060E080E00E9487008C
S113044041E064E082E00E94870041E065E082E0F0
S11304500E94870041E066E082E00E94870040E05D
S113046060E083E00E94870041E061E083E00E9455
S1130470870000E0AE014F5F5F4F64E083E00E94BD
S11304808B01AE014E5F5F4F65E083E00E948B01FC
S11304908981813019F08A81813061F7BE01675FFB
S11304A07F4F80E00E946E0069857A8580E090E04D
S11304B00E94BF032AE037ED43E250E40E94250482
S11304C020E030E04AE754E40E94250420E030E0D4
S11304D040E85AE30E9425040E9490039B01ADEC7E
S11304E0BCEC0E94BA049695879596958795969547
S11304F08795182FAE014D5F5F4F66E080E00E9444
S11305008B01AE014C5F5F4F67E080E00E948B017E
S1130510AE014B5F5F4F60E082E00E948B01AE0151
S11305204A5F5F4F61E082E00E948B01AE01495F48
S11305305F4F62E083E00E948B01AE01485F5F4F32
S113054063E083E00E948B011D3170F001111BC038
S113055041E064E082E00E94090141E065E082E05C
S11305600E94090101E00FC0153160F440E064E02D
S113057082E00E94090140E065E082E00E940901F6
S113058000E001C000E08B81813031F441E063E0A0
S113059082E00E94090105C040E063E082E00E941D
S11305A009018C81813031F441E061E080E00E94F6
S11305B0090105C040E061E080E00E9409018D81ED
S11305C0813031F441E062E080E00E94090105C01D
S11305D040E062E080E00E9409018E81813031F4C4
S11305E041E063E080E00E94090105C040E063E06F
S11305F080E00E9409018F81813031F441E064E0A0
S113060080E00E94090105C040E064E080E00E94AF
S113061009018885813031F441E065E080E00E9481
S1130620090128CF40E065E080E00E94090122CF63
S11306301F920F920FB60F9211242F933F934F9353
S11306405F936F937F938F939F93AF93BF93EF9336
S1130650FF938091620090916300019690936300F0
S113066080936200813D934069F481E782BF1092D8
S1130670630010926200E0916600F0916700309789
S113068009F00995FF91EF91BF91AF919F918F91DF
S11306907F916F915F914F913F912F910F900FBE7A
S11306A00F901F9018951F920F920FB60F9211245E
S11306B02F933F934F935F936F937F938F939F9366
S11306C0AF93BF93EF93FF9380916000909161008B
S11306D001969093610080936000209168003091AE
S11306E069008217930759F4109261001092600018
S11306F0E0916400F0916500309709F00995FF914D
S1130700EF91BF91AF919F918F917F916F915F9185
S11307104F913F912F910F900FBE0F901F901895FE
S11307200E94040488F09F5798F0B92F9927B75175
S1130730B0F0E1F0660F771F881F991F1AF0BA9581
S1130740C9F714C0B13091F00E941E04B1E00895BD
S11307500C941E04672F782F8827B85F39F0B93FAF
S1130760CCF3869577956795B395D9F73EF4909534
S11307708095709561957F4F8F4F9F4F0895E894B2
S113078009C097FB3EF490958095709561957F4FD5
S11307908F4F9F4F9923A9F0F92F96E9BB27939583
S11307A0F695879577956795B795F111F8CFFAF493
S11307B0BB0F11F460FF1BC06F5F7F4F8F4F9F4FC4
S11307C016C0882311F096E911C0772321F09EE822
S11307D0872F762F05C0662371F096E8862F70E088
S11307E060E02AF09A95660F771F881FDAF7880F62
S11307F09695879597F9089557FD9058440F551F7E
S113080059F05F3F71F04795880F97FB991F61F08E
S11308109F3F79F087950895121613061406551F05
S1130820F2CF4695F1DF08C0161617061806991F71
S1130830F1CF86957105610508940895E894BB2766
S113084066277727CB0197F908950E9438040C9402
S1130850A9040E949B0438F00E94A20420F095236E
S113086011F00C9492040C94980411240C941F0419
S11308700E94FC0370F3959FC1F3950F50E0551F40
S1130880629FF001729FBB27F00DB11D639FAA27E1
S1130890F00DB11DAA1F649F6627B00DA11D661F30
S11308A0829F2227B00DA11D621F739FB00DA11D51
S11308B0621F839FA00D611D221F749F3327A00D0B
S11308C0611D231F849F600D211D822F762F6A2FA7
S11308D011249F5750409AF0F1F088234AF0EE0F0C
S11308E0FF1FBB1F661F771F881F91505040A9F739
S11308F09E3F510580F00C9492040C941F045F3FBA
S1130900E4F3983ED4F3869577956795B795F79574
S1130910E7959F5FC1F7FE2B880F911D96958795EC
S113092097F9089597F99F6780E870E060E008956B
S11309309FEF80EC089500240A94161617061806F3
S11309400906089500240A941216130614060506CF
S11309500895092E0394000C11F4882352F0BB0F60
S113096040F4BF2B11F460FF04C06F5F7F4F8F4FC3
S11309709F4F0895A29FB001B39FC001A39F700D24
S1130980811D1124911DB29F700D811D1124911D93
S10909900895F894FFCF66
S9030000FC
