:100000000C942A000C943F000C943F000C943F0089
:100010000C943F000C943F000C943F000C943F0064
:100020000C943F000C943F000C943F000C943F0054
:100030000C943F000C943F000C943F000C943F0044
:100040000C943F000C943F000C943F000C943F0034
:100050000C943F0011241FBECFE5D8E0DEBFCDBF1A
:1000600010E0A0E6B0E0E4EDF7E002C005900D92EC
:10007000A239B107D9F70E94D2020C94E8030C947C
:100080000000843008F07EC0683008F07BC0423049
:1000900008F078C0813019F130F08230E1F183301E
:1000A00009F455C00895442319F0413069F00895CA
:1000B0002AB381E090E002C0880F991F6A95E2F7A9
:1000C000809582238ABB08952AB381E090E002C024
:1000D000880F991F6A95E2F7822B8ABB0895442303
:1000E00019F0413069F0089527B381E090E002C033
:1000F000880F991F6A95E2F78095822387BB089540
:1001000027B381E090E002C0880F991F6A95E2F75B
:10011000822B87BB0895442319F0413069F008957C
:1001200024B381E090E002C0880F991F6A95E2F73E
:100130008095822384BB089524B381E090E002C0BF
:10014000880F991F6A95E2F7822B84BB0895442398
:1001500019F0413069F0089521B381E090E002C0C8
:10016000880F991F6A95E2F78095822381BB0895D5
:1001700021B381E090E002C0880F991F6A95E2F7F1
:10018000822B81BB0895843008F07EC0683008F06F
:100190007BC0423008F078C0813019F130F08230F5
:1001A000E1F1833009F455C00895442319F041303A
:1001B00069F008952BB381E090E002C0880F991F89
:1001C0006A95E2F7809582238BBB08952BB381E07B
:1001D00090E002C0880F991F6A95E2F7822B8BBBD3
:1001E0000895442319F0413069F0089528B381E05F
:1001F00090E002C0880F991F6A95E2F780958223EC
:1002000088BB089528B381E090E002C0880F991F51
:100210006A95E2F7822B88BB0895442319F0413098
:1002200069F0089525B381E090E002C0880F991F1E
:100230006A95E2F78095822385BB089525B381E016
:1002400090E002C0880F991F6A95E2F7822B85BB68
:100250000895442319F0413069F0089522B381E0F4
:1002600090E002C0880F991F6A95E2F7809582237B
:1002700082BB089522B381E090E002C0880F991FED
:100280006A95E2F7822B82BB08950E94410308958C
:10029000FF920F931F93CF93DF936115710511F1B7
:1002A000413100F5D42F8B01F82EC92FC0650E9473
:1002B00050038C2F0E9473038F2D0E949D03C0E07A
:1002C00007C0F801EC0FF11D80810E949D03CF5FF4
:1002D000CD17B8F30E946C038FE19EE40197F1F70C
:1002E00000C00000DF91CF911F910F91FF90089502
:1002F000FF920F931F93CF93DF936115710589F1DF
:10030000413178F5D42F8B01F82EC92FC0650E949A
:1003100050038C2F0E9473038F2D0E949D030E9417
:100320005E038C2F0E948803C0E006C0C8018C0FBA
:10033000911D0E94A903CF5F2C2F30E08D2F90E0FC
:1003400001972817390794F3C8018C0F911D0E945B
:10035000B9030E946C038FE19EE40197F1F700C09E
:100360000000DF91CF911F910F91FF900895CF93DF
:10037000C82F482F417060E080E00E94C300C1FB9D
:10038000442740F961E080E00E94C300C2FB44279B
:1003900040F962E080E00E94C300C3FB442740F9BB
:1003A00063E080E00E94C300CF910895CF93C82FEF
:1003B00040E064E080E00E94C30040E065E080E04F
:1003C0000E94C3008C2F82958F700E94B70141E07C
:1003D00066E080E00E94C3008FE99FE00197F1F79B
:1003E00000C0000040E066E080E00E94C3008C2F67
:1003F0000E94B70141E066E080E00E94C3008FE9FF
:100400009FE00197F1F700C0000040E066E080E067
:100410000E94C300CF91089541E065E080E00E9412
:10042000410041E064E080E00E94410041E066E07C
:1004300080E00E94410041E060E080E00E944100D5
:1004400041E061E080E00E94410041E062E080E044
:100450000E94410041E063E080E00E9441002FE7FC
:1004600085EB91E0215080409040E1F700C0000012
:1004700040E064E080E00E94C30040E065E080E08E
:100480000E94C30082E00E94B70141E066E080E084
:100490000E94C3008FE99FE00197F1F700C00000C0
:1004A00040E066E080E00E94C30088E20E94D6013E
:1004B00090EF9A95F1F78FE00E94D60120EF2A95F0
:1004C000F1F781E00E94D6018FE39FE10197F1F7F8
:1004D00000C0000086E00E94D6010895CF93C82F87
:1004E00041E064E080E00E94C30040E065E080E01D
:1004F0000E94C3008C2F82958F700E94B70141E04B
:1005000066E080E00E94C3008FE99FE00197F1F769
:1005100000C0000040E066E080E00E94C3008C2F35
:100520000E94B70141E066E080E00E94C3008FE9CD
:100530009FE00197F1F700C0000040E066E080E036
:100540000E94C300CF9108950F931F93CF938C0106
:10055000C0E003C00E946E02CF5FF801EC0FF11DF6
:1005600080818111F7CFCF911F910F91089581E084
:100570000E94D6018FE39FE10197F1F700C00000D0
:100580000895603170F4813019F0823031F00895AF
:1005900080E8860F0E94D601089580EC860F0E94A5
:1005A000D6010895CF93DF9300D000D01F92CDB72E
:1005B000DEB741E061E083E00E94410040E060E09E
:1005C00083E00E94410041E062E082E00E9441003D
:1005D0000E94CF030E9445010E940C0280E690E039
:1005E0000E94A40260E082E00E94C1028EE690E0D8
:1005F0000E94A40210E0CE0105960E94E0031111B2
:1006000002C00E94B7028D818F3F61F0823451F0A9
:10061000E981FA81E10FF11D80838D810E946E02D4
:100620001F5FE9CF823439F747E050E0BE016F5FCA
:100630007F4F80E090E00E9448010E94B70247E0AF
:1006400050E0BE016D5F7F4F80E090E00E94780136
:100650002B813C8189819A812817390761F687E8C7
:1006600090E00E94A40260E082E00E94C1028B81BF
:100670009C810E94A40241E062E082E00E94C300EB
:10068000BACF8CE080B981B18E7F81B981B18D7F85
:1006900081B986B7806486BF86B7846086BF0895B7
:1006A00086B7806286BF86B7806886BF06B607FEBB
:1006B000FDCF81B1887F8830E1F7089586B78062E9
:1006C00086BF86B7806886BF06B607FEFDCF81B1BC
:1006D000887F8031E1F7089586B7806186BF86B74D
:1006E000806886BF0895882394F0880F83B983B10A
:1006F0008E7F83B986B78F7D86BF86B7806886BFB9
:1007000006B607FEFDCF81B1887F8831E1F70895F5
:10071000882394F0880F83B983B1816083B986B749
:100720008F7D86BF86B7806886BF06B607FEFDCF81
:1007300081B1887F8034E1F7089583B986B78068F6
:1007400086BF06B607FEFDCF81B1887F8832E1F70C
:100750000895FC01892B61F096B7906896BF06B6A4
:1007600007FEFDCF91B1987F9035E1F783B180838B
:100770000895FC01892B91F096B79F7B96BF96B7A1
:10078000906896BF06B607FEFDCF91B1987F983569
:10079000E1F783B1808386B7806486BF089587E6DA
:1007A00089B98BB18D7F8BB986E880BD8AB18B7F8B
:1007B0008AB98AB188608AB98AB180618AB9089594
:1007C000009729F05F9BFECF2CB1FC012083089598
:0407D000F894FFCFCB
:1007D400506C6561736520456E74657220005573B5
:1007E4006572204E616D6520666F6C6C6F77656411
:1007F40020627920233A004C6F67656420496E219A
:020804000000F2
:00000001FF
